{
  "abi": [
    {
      "inputs": [
        {
          "internalType": "address",
          "name": "initialOwner",
          "type": "address"
        }
      ],
      "stateMutability": "nonpayable",
      "type": "constructor"
    },
    {
      "inputs": [
        {
          "internalType": "address",
          "name": "account",
          "type": "address"
        }
      ],
      "name": "AddressInsufficientBalance",
      "type": "error"
    },
    {
      "inputs": [],
      "name": "FailedInnerCall",
      "type": "error"
    },
    {
      "inputs": [
        {
          "internalType": "address",
          "name": "owner",
          "type": "address"
        }
      ],
      "name": "OwnableInvalidOwner",
      "type": "error"
    },
    {
      "inputs": [
        {
          "internalType": "address",
          "name": "account",
          "type": "address"
        }
      ],
      "name": "OwnableUnauthorizedAccount",
      "type": "error"
    },
    {
      "anonymous": false,
      "inputs": [
        {
          "indexed": true,
          "internalType": "uint256",
          "name": "bidId",
          "type": "uint256"
        },
        {
          "indexed": true,
          "internalType": "address",
          "name": "bidder",
          "type": "address"
        },
        {
          "indexed": true,
          "internalType": "address",
          "name": "seller",
          "type": "address"
        }
      ],
      "name": "BidAccepted",
      "type": "event"
    },
    {
      "anonymous": false,
      "inputs": [
        {
          "indexed": true,
          "internalType": "uint256",
          "name": "bidId",
          "type": "uint256"
        }
      ],
      "name": "BidCancelled",
      "type": "event"
    },
    {
      "anonymous": false,
      "inputs": [
        {
          "indexed": true,
          "internalType": "uint256",
          "name": "bidId",
          "type": "uint256"
        },
        {
          "indexed": true,
          "internalType": "address",
          "name": "bidder",
          "type": "address"
        },
        {
          "components": [
            {
              "internalType": "uint256",
              "name": "amount",
              "type": "uint256"
            },
            {
              "internalType": "uint256",
              "name": "fees",
              "type": "uint256"
            },
            {
              "internalType": "address",
              "name": "tokenAddress",
              "type": "address"
            }
          ],
          "indexed": false,
          "internalType": "struct Marketplace.TokenInfo",
          "name": "tokenInfo",
          "type": "tuple"
        },
        {
          "components": [
            {
              "internalType": "address",
              "name": "nftAddress",
              "type": "address"
            },
            {
              "internalType": "uint256",
              "name": "tokenId",
              "type": "uint256"
            }
          ],
          "indexed": false,
          "internalType": "struct Marketplace.NFTInfo",
          "name": "nftInfo",
          "type": "tuple"
        }
      ],
      "name": "BidPlaced",
      "type": "event"
    },
    {
      "anonymous": false,
      "inputs": [
        {
          "indexed": true,
          "internalType": "uint256",
          "name": "offerId",
          "type": "uint256"
        }
      ],
      "name": "OfferCancelled",
      "type": "event"
    },
    {
      "anonymous": false,
      "inputs": [
        {
          "indexed": true,
          "internalType": "uint256",
          "name": "offerId",
          "type": "uint256"
        },
        {
          "indexed": true,
          "internalType": "address",
          "name": "seller",
          "type": "address"
        },
        {
          "components": [
            {
              "internalType": "uint256",
              "name": "amount",
              "type": "uint256"
            },
            {
              "internalType": "uint256",
              "name": "fees",
              "type": "uint256"
            },
            {
              "internalType": "address",
              "name": "tokenAddress",
              "type": "address"
            }
          ],
          "indexed": false,
          "internalType": "struct Marketplace.TokenInfo",
          "name": "tokenInfo",
          "type": "tuple"
        },
        {
          "components": [
            {
              "internalType": "address",
              "name": "nftAddress",
              "type": "address"
            },
            {
              "internalType": "uint256",
              "name": "tokenId",
              "type": "uint256"
            }
          ],
          "indexed": false,
          "internalType": "struct Marketplace.NFTInfo",
          "name": "nftInfo",
          "type": "tuple"
        }
      ],
      "name": "OfferCreated",
      "type": "event"
    },
    {
      "anonymous": false,
      "inputs": [
        {
          "indexed": true,
          "internalType": "address",
          "name": "previousOwner",
          "type": "address"
        },
        {
          "indexed": true,
          "internalType": "address",
          "name": "newOwner",
          "type": "address"
        }
      ],
      "name": "OwnershipTransferred",
      "type": "event"
    },
    {
      "anonymous": false,
      "inputs": [
        {
          "indexed": true,
          "internalType": "uint256",
          "name": "offerId",
          "type": "uint256"
        },
        {
          "indexed": true,
          "internalType": "address",
          "name": "buyer",
          "type": "address"
        },
        {
          "indexed": true,
          "internalType": "address",
          "name": "seller",
          "type": "address"
        }
      ],
      "name": "PurchaseCompleted",
      "type": "event"
    },
    {
      "inputs": [
        {
          "internalType": "uint256",
          "name": "bidId",
          "type": "uint256"
        }
      ],
      "name": "acceptBid",
      "outputs": [],
      "stateMutability": "nonpayable",
      "type": "function"
    },
    {
      "inputs": [
        {
          "internalType": "uint256",
          "name": "offerId",
          "type": "uint256"
        }
      ],
      "name": "buy",
      "outputs": [],
      "stateMutability": "payable",
      "type": "function"
    },
    {
      "inputs": [
        {
          "internalType": "uint256",
          "name": "bidId",
          "type": "uint256"
        }
      ],
      "name": "cancelBid",
      "outputs": [],
      "stateMutability": "nonpayable",
      "type": "function"
    },
    {
      "inputs": [
        {
          "internalType": "uint256",
          "name": "offerId",
          "type": "uint256"
        }
      ],
      "name": "cancelOffer",
      "outputs": [],
      "stateMutability": "nonpayable",
      "type": "function"
    },
    {
      "inputs": [
        {
          "components": [
            {
              "internalType": "uint256",
              "name": "amount",
              "type": "uint256"
            },
            {
              "internalType": "uint256",
              "name": "fees",
              "type": "uint256"
            },
            {
              "internalType": "address",
              "name": "tokenAddress",
              "type": "address"
            }
          ],
          "internalType": "struct Marketplace.TokenInfo",
          "name": "tokenInfo",
          "type": "tuple"
        },
        {
          "components": [
            {
              "internalType": "address",
              "name": "nftAddress",
              "type": "address"
            },
            {
              "internalType": "uint256",
              "name": "tokenId",
              "type": "uint256"
            }
          ],
          "internalType": "struct Marketplace.NFTInfo",
          "name": "nftInfo",
          "type": "tuple"
        },
        {
          "internalType": "uint256",
          "name": "expiresAt",
          "type": "uint256"
        }
      ],
      "name": "createOffer",
      "outputs": [
        {
          "internalType": "uint256",
          "name": "",
          "type": "uint256"
        }
      ],
      "stateMutability": "nonpayable",
      "type": "function"
    },
    {
      "inputs": [],
      "name": "ethUsdProxy",
      "outputs": [
        {
          "internalType": "address",
          "name": "",
          "type": "address"
        }
      ],
      "stateMutability": "view",
      "type": "function"
    },
    {
      "inputs": [
        {
          "internalType": "uint256",
          "name": "bidId",
          "type": "uint256"
        }
      ],
      "name": "getBid",
      "outputs": [
        {
          "components": [
            {
              "internalType": "address",
              "name": "bidder",
              "type": "address"
            },
            {
              "components": [
                {
                  "internalType": "uint256",
                  "name": "amount",
                  "type": "uint256"
                },
                {
                  "internalType": "uint256",
                  "name": "fees",
                  "type": "uint256"
                },
                {
                  "internalType": "address",
                  "name": "tokenAddress",
                  "type": "address"
                }
              ],
              "internalType": "struct Marketplace.TokenInfo",
              "name": "tokenInfo",
              "type": "tuple"
            },
            {
              "components": [
                {
                  "internalType": "address",
                  "name": "nftAddress",
                  "type": "address"
                },
                {
                  "internalType": "uint256",
                  "name": "tokenId",
                  "type": "uint256"
                }
              ],
              "internalType": "struct Marketplace.NFTInfo",
              "name": "nftInfo",
              "type": "tuple"
            },
            {
              "internalType": "uint256",
              "name": "expiresAt",
              "type": "uint256"
            }
          ],
          "internalType": "struct Marketplace.Bid",
          "name": "",
          "type": "tuple"
        }
      ],
      "stateMutability": "view",
      "type": "function"
    },
    {
      "inputs": [
        {
          "internalType": "uint256",
          "name": "tokenId",
          "type": "uint256"
        }
      ],
      "name": "getBidsForNFT",
      "outputs": [
        {
          "components": [
            {
              "internalType": "address",
              "name": "bidder",
              "type": "address"
            },
            {
              "components": [
                {
                  "internalType": "uint256",
                  "name": "amount",
                  "type": "uint256"
                },
                {
                  "internalType": "uint256",
                  "name": "fees",
                  "type": "uint256"
                },
                {
                  "internalType": "address",
                  "name": "tokenAddress",
                  "type": "address"
                }
              ],
              "internalType": "struct Marketplace.TokenInfo",
              "name": "tokenInfo",
              "type": "tuple"
            },
            {
              "components": [
                {
                  "internalType": "address",
                  "name": "nftAddress",
                  "type": "address"
                },
                {
                  "internalType": "uint256",
                  "name": "tokenId",
                  "type": "uint256"
                }
              ],
              "internalType": "struct Marketplace.NFTInfo",
              "name": "nftInfo",
              "type": "tuple"
            },
            {
              "internalType": "uint256",
              "name": "expiresAt",
              "type": "uint256"
            }
          ],
          "internalType": "struct Marketplace.Bid[]",
          "name": "",
          "type": "tuple[]"
        }
      ],
      "stateMutability": "view",
      "type": "function"
    },
    {
      "inputs": [],
      "name": "getETHtoUSD",
      "outputs": [
        {
          "internalType": "int224",
          "name": "value",
          "type": "int224"
        },
        {
          "internalType": "uint256",
          "name": "timestamp",
          "type": "uint256"
        }
      ],
      "stateMutability": "view",
      "type": "function"
    },
    {
      "inputs": [
        {
          "internalType": "uint256",
          "name": "tokenId",
          "type": "uint256"
        }
      ],
      "name": "getNFTOffer",
      "outputs": [
        {
          "components": [
            {
              "internalType": "address",
              "name": "seller",
              "type": "address"
            },
            {
              "components": [
                {
                  "internalType": "uint256",
                  "name": "amount",
                  "type": "uint256"
                },
                {
                  "internalType": "uint256",
                  "name": "fees",
                  "type": "uint256"
                },
                {
                  "internalType": "address",
                  "name": "tokenAddress",
                  "type": "address"
                }
              ],
              "internalType": "struct Marketplace.TokenInfo",
              "name": "tokenInfo",
              "type": "tuple"
            },
            {
              "components": [
                {
                  "internalType": "address",
                  "name": "nftAddress",
                  "type": "address"
                },
                {
                  "internalType": "uint256",
                  "name": "tokenId",
                  "type": "uint256"
                }
              ],
              "internalType": "struct Marketplace.NFTInfo",
              "name": "nftInfo",
              "type": "tuple"
            },
            {
              "internalType": "uint256",
              "name": "expiresAt",
              "type": "uint256"
            }
          ],
          "internalType": "struct Marketplace.Offer",
          "name": "",
          "type": "tuple"
        }
      ],
      "stateMutability": "view",
      "type": "function"
    },
    {
      "inputs": [
        {
          "internalType": "uint256",
          "name": "offerId",
          "type": "uint256"
        }
      ],
      "name": "getOffer",
      "outputs": [
        {
          "components": [
            {
              "internalType": "address",
              "name": "seller",
              "type": "address"
            },
            {
              "components": [
                {
                  "internalType": "uint256",
                  "name": "amount",
                  "type": "uint256"
                },
                {
                  "internalType": "uint256",
                  "name": "fees",
                  "type": "uint256"
                },
                {
                  "internalType": "address",
                  "name": "tokenAddress",
                  "type": "address"
                }
              ],
              "internalType": "struct Marketplace.TokenInfo",
              "name": "tokenInfo",
              "type": "tuple"
            },
            {
              "components": [
                {
                  "internalType": "address",
                  "name": "nftAddress",
                  "type": "address"
                },
                {
                  "internalType": "uint256",
                  "name": "tokenId",
                  "type": "uint256"
                }
              ],
              "internalType": "struct Marketplace.NFTInfo",
              "name": "nftInfo",
              "type": "tuple"
            },
            {
              "internalType": "uint256",
              "name": "expiresAt",
              "type": "uint256"
            }
          ],
          "internalType": "struct Marketplace.Offer",
          "name": "",
          "type": "tuple"
        }
      ],
      "stateMutability": "view",
      "type": "function"
    },
    {
      "inputs": [],
      "name": "getUSDCtoUSD",
      "outputs": [
        {
          "internalType": "int224",
          "name": "value",
          "type": "int224"
        },
        {
          "internalType": "uint256",
          "name": "timestamp",
          "type": "uint256"
        }
      ],
      "stateMutability": "view",
      "type": "function"
    },
    {
      "inputs": [],
      "name": "marketplaceFee",
      "outputs": [
        {
          "internalType": "uint256",
          "name": "",
          "type": "uint256"
        }
      ],
      "stateMutability": "view",
      "type": "function"
    },
    {
      "inputs": [
        {
          "internalType": "address",
          "name": "",
          "type": "address"
        },
        {
          "internalType": "address",
          "name": "",
          "type": "address"
        },
        {
          "internalType": "uint256",
          "name": "",
          "type": "uint256"
        },
        {
          "internalType": "bytes",
          "name": "",
          "type": "bytes"
        }
      ],
      "name": "onERC721Received",
      "outputs": [
        {
          "internalType": "bytes4",
          "name": "",
          "type": "bytes4"
        }
      ],
      "stateMutability": "pure",
      "type": "function"
    },
    {
      "inputs": [],
      "name": "owner",
      "outputs": [
        {
          "internalType": "address",
          "name": "",
          "type": "address"
        }
      ],
      "stateMutability": "view",
      "type": "function"
    },
    {
      "inputs": [
        {
          "components": [
            {
              "internalType": "uint256",
              "name": "amount",
              "type": "uint256"
            },
            {
              "internalType": "uint256",
              "name": "fees",
              "type": "uint256"
            },
            {
              "internalType": "address",
              "name": "tokenAddress",
              "type": "address"
            }
          ],
          "internalType": "struct Marketplace.TokenInfo",
          "name": "tokenInfo",
          "type": "tuple"
        },
        {
          "components": [
            {
              "internalType": "address",
              "name": "nftAddress",
              "type": "address"
            },
            {
              "internalType": "uint256",
              "name": "tokenId",
              "type": "uint256"
            }
          ],
          "internalType": "struct Marketplace.NFTInfo",
          "name": "nftInfo",
          "type": "tuple"
        },
        {
          "internalType": "uint256",
          "name": "expiresAt",
          "type": "uint256"
        }
      ],
      "name": "placeBid",
      "outputs": [
        {
          "internalType": "uint256",
          "name": "",
          "type": "uint256"
        }
      ],
      "stateMutability": "payable",
      "type": "function"
    },
    {
      "inputs": [],
      "name": "renounceOwnership",
      "outputs": [],
      "stateMutability": "nonpayable",
      "type": "function"
    },
    {
      "inputs": [
        {
          "internalType": "uint256",
          "name": "fee",
          "type": "uint256"
        }
      ],
      "name": "setMarketplaceFee",
      "outputs": [],
      "stateMutability": "nonpayable",
      "type": "function"
    },
    {
      "inputs": [
        {
          "internalType": "address",
          "name": "_ethUsd",
          "type": "address"
        },
        {
          "internalType": "address",
          "name": "_usdUsdc",
          "type": "address"
        }
      ],
      "name": "setProxyAddresses",
      "outputs": [],
      "stateMutability": "nonpayable",
      "type": "function"
    },
    {
      "inputs": [
        {
          "internalType": "address",
          "name": "newOwner",
          "type": "address"
        }
      ],
      "name": "transferOwnership",
      "outputs": [],
      "stateMutability": "nonpayable",
      "type": "function"
    },
    {
      "inputs": [],
      "name": "usdcUsdProxy",
      "outputs": [
        {
          "internalType": "address",
          "name": "",
          "type": "address"
        }
      ],
      "stateMutability": "view",
      "type": "function"
    }
  ],
  "bytecode": {
    "object": "0x60806040526101f4600555600680546001600160a01b03199081167326690f9f17fdc26d419371315bc17950a0fc90ed1790915560078054909116738df7d919fe9e866259bb4d135922c5bd96af6a271790553480156200005f57600080fd5b5060405162002a4038038062002a40833981016040819052620000829162000115565b806001600160a01b038116620000b257604051631e4fbdf760e01b81526000600482015260240160405180910390fd5b620000bd81620000c5565b505062000147565b600080546001600160a01b038381166001600160a01b0319831681178455604051919092169283917f8be0079c531659141344cd1fd0a4f28419497f9722a3daafe3b4186f6b6457e09190a35050565b6000602082840312156200012857600080fd5b81516001600160a01b03811681146200014057600080fd5b9392505050565b6128e980620001576000396000f3fe60806040526004361061012a5760003560e01c80638da5cb5b116100ab578063d96a094a1161006f578063d96a094a14610355578063ddde2e7514610368578063e6d16fa214610395578063ef706adf146103aa578063f2fde38b146103ca578063fe1b5b42146103ea57600080fd5b80638da5cb5b146102945780639407ea98146102c65780639703ef35146102e6578063ca70b85d14610306578063d15c68ef1461033557600080fd5b80633c889e6f116100f25780633c889e6f146102095780634579268a146102295780636a16696414610249578063715018a61461025f57806385d92aea1461027457600080fd5b80630d9610341461012f578063150b7a02146101555780631efd70b91461019a5780632b1fd58a146101c757806333f334eb146101e9575b600080fd5b61014261013d3660046123a8565b61040a565b6040519081526020015b60405180910390f35b34801561016157600080fd5b5061018161017036600461246d565b630a85bd0160e11b95945050505050565b6040516001600160e01b0319909116815260200161014c565b3480156101a657600080fd5b506101ba6101b536600461250c565b610882565b60405161014c919061258d565b3480156101d357600080fd5b506101e76101e236600461250c565b61091c565b005b3480156101f557600080fd5b506101e76102043660046125a1565b610f27565b34801561021557600080fd5b506101ba61022436600461250c565b610f5d565b34801561023557600080fd5b506101ba61024436600461250c565b610fe5565b34801561025557600080fd5b5061014260055481565b34801561026b57600080fd5b506101e761106d565b34801561028057600080fd5b5061014261028f3660046123a8565b611081565b3480156102a057600080fd5b506000546001600160a01b03165b6040516001600160a01b03909116815260200161014c565b3480156102d257600080fd5b506101e76102e136600461250c565b6114e2565b3480156102f257600080fd5b506101e761030136600461250c565b611541565b34801561031257600080fd5b5061031b611882565b60408051601b9390930b835260208301919091520161014c565b34801561034157600080fd5b506007546102ae906001600160a01b031681565b6101e761036336600461250c565b611900565b34801561037457600080fd5b5061038861038336600461250c565b611de2565b60405161014c91906125da565b3480156103a157600080fd5b5061031b611f80565b3480156103b657600080fd5b506101e76103c536600461250c565b611fca565b3480156103d657600080fd5b506101e76103e5366004612628565b61216f565b3480156103f657600080fd5b506006546102ae906001600160a01b031681565b60008033905060008186600001518760400151876000015188602001518860405160200161043d96959493929190612645565b60408051601f198184030181529181528151602092830120600081815260039093529120549091506001600160a01b0316156104b55760405162461bcd60e51b815260206004820152601260248201527142696420616c72656164792065786973747360701b60448201526064015b60405180910390fd5b84516001600160a01b03166105025760405162461bcd60e51b8152602060048201526013602482015272496e76616c6964204e4654206164647265737360681b60448201526064016104ac565b845160208601516040516331a9108f60e11b81526001600160a01b038086169290841691636352211e9161053c9160040190815260200190565b602060405180830381865afa158015610559573d6000803e3d6000fd5b505050506040513d601f19601f8201168201806040525081019061057d919061268d565b6001600160a01b0316036105a35760405162461bcd60e51b81526004016104ac906126aa565b6040518060800160405280846001600160a01b0316815260200160405180606001604052806127106005546127106105db91906126e7565b8c516105e791906126fa565b6105f19190612711565b81526020016127106005548c6000015161060b91906126fa565b6106159190612711565b81526040808c0180516001600160a01b039081166020948501529385528483018c90529381018a905260008781526003808452828220875181549087166001600160a01b03199182161782558886015180516001808501919091558188015160028501559086015193830180549489169483169490941790935588850151805160048085018054928b16929094169190911790925586015160058301556060909801516006909101558c8401518252958352908120805495860181558152209092018490555116156107f45760408781015188519151636eb1769f60e11b81526001600160a01b03868116600483015230602483015291929183169063dd62ed3e90604401602060405180830381865afa158015610737573d6000803e3d6000fd5b505050506040513d601f19601f8201168201806040525081019061075b9190612733565b10156107795760405162461bcd60e51b81526004016104ac9061274c565b87516040516323b872dd60e01b81526001600160a01b038316916323b872dd916107aa918891309190600401612793565b6020604051808303816000875af11580156107c9573d6000803e3d6000fd5b505050506040513d601f19601f820116820180604052508101906107ed91906127b7565b5050610832565b865134146108325760405162461bcd60e51b815260206004820152600b60248201526a57726f6e6720707269636560a81b60448201526064016104ac565b826001600160a01b0316827f986e13c58e0614518810196e25cee22d88d96436cec2f64d30fe153ce6122908898960405161086e9291906127d9565b60405180910390a3509150505b9392505050565b61088a6122c6565b506000908152600260208181526040808420548452600180835293819020815160808101835281546001600160a01b03908116825283516060808201865297840154815295830154868601526003830154811686850152818501959095528251808401845260048301549095168552600582015493850193909352908201929092526006909101549181019190915290565b600081815260036020818152604092839020835160808101855281546001600160a01b0390811682528551606080820188526001850154825260028501548287015295840154821681880152828501528551808701875260048401548216815260058401549481019490945294810192909252600601549181019190915280513392166109e05760405162461bcd60e51b8152602060048201526012602482015271109a5908191bd95cc81b9bdd08195e1a5cdd60721b60448201526064016104ac565b606081015115806109f45750806060015142105b610a2e5760405162461bcd60e51b815260206004820152600b60248201526a109a5908195e1c1a5c995960aa1b60448201526064016104ac565b604081810151805160209091015191516331a9108f60e11b81526004810192909252906001600160a01b038481169190831690636352211e90602401602060405180830381865afa158015610a87573d6000803e3d6000fd5b505050506040513d601f19601f82011682018060405250810190610aab919061268d565b6001600160a01b031614610ad15760405162461bcd60e51b81526004016104ac906126aa565b60405163e985e9c560e01b81526001600160a01b03848116600483015230602483015282169063e985e9c590604401602060405180830381865afa158015610b1d573d6000803e3d6000fd5b505050506040513d601f19601f82011682018060405250810190610b4191906127b7565b610b895760405162461bcd60e51b81526020600482015260196024820152782737ba1030b8383937bb32b2103337b9103a3930b739b332b960391b60448201526064016104ac565b600084815260036020818152604080842080546001600160a01b0319908116825560018083018790556002808401889055838701805484169055600480850180548516905560058086018a905560069586018a90558b870180518901518b52838952878b20548b52848952878b208054871681559485018b90558484018b90559884018054861690558382018054909516909455928201889055920186905584518401518652908352818520859055925182015184529190528120905b8154811015610cfa5785828281548110610c6257610c6261281d565b906000526020600020015403610ce85781548290610c82906001906126e7565b81548110610c9257610c9261281d565b9060005260206000200154828281548110610caf57610caf61281d565b906000526020600020018190555081805480610ccd57610ccd612833565b60019003818190600052602060002001600090559055610cfa565b80610cf281612849565b915050610c46565b508251604080850151602001519051632142170760e11b81526001600160a01b038516926342842e0e92610d349289929190600401612793565b600060405180830381600087803b158015610d4e57600080fd5b505af1158015610d62573d6000803e3d6000fd5b505050506020830151604001516001600160a01b031615610e9e5760208301516040808201519151905163a9059cbb60e01b81526001600160a01b03878116600483015260248201929092529082169063a9059cbb906044016020604051808303816000875af1158015610dda573d6000803e3d6000fd5b505050506040513d601f19601f82011682018060405250810190610dfe91906127b7565b50806001600160a01b031663a9059cbb610e206000546001600160a01b031690565b60208088015101516040516001600160e01b031960e085901b1681526001600160a01b03909216600483015260248201526044016020604051808303816000875af1158015610e73573d6000803e3d6000fd5b505050506040513d601f19601f82011682018060405250810190610e9791906127b7565b5050610ee5565b602083015151610eb8906001600160a01b038616906121ad565b610ee5836020015160200151610ed66000546001600160a01b031690565b6001600160a01b0316906121ad565b82516040516001600160a01b0380871692169087907fd32f7ef8c20232133e4dbd098b49d6b86ab580eee8a90a815925e9005847496390600090a45050505050565b610f2f612249565b600680546001600160a01b039384166001600160a01b03199182161790915560078054929093169116179055565b610f656122c6565b50600090815260036020818152604092839020835160808101855281546001600160a01b039081168252855160608082018852600185015482526002850154828701529584015482168188015282850152855180870187526004840154909116815260058301549381019390935293840191909152600601549082015290565b610fed6122c6565b50600090815260016020818152604092839020835160808101855281546001600160a01b039081168252855160608082018852958401548152600284015481860152600384015482168188015282850152855180870187526004840154909116815260058301549381019390935293840191909152600601549082015290565b611075612249565b61107f6000612276565b565b6020808301516000908152600290915260408120543390156110db5760405162461bcd60e51b81526020600482015260136024820152724e465420616c7265616479206f6e2073616c6560681b60448201526064016104ac565b60008186600001518760400151876000015188602001518860405160200161110896959493929190612645565b60408051601f198184030181529181528151602092830120600081815260019093529120549091506001600160a01b03161561117d5760405162461bcd60e51b81526020600482015260146024820152734f6666657220616c72656164792065786973747360601b60448201526064016104ac565b84516001600160a01b03166111ca5760405162461bcd60e51b8152602060048201526013602482015272496e76616c6964204e4654206164647265737360681b60448201526064016104ac565b845160208601516040516331a9108f60e11b81526001600160a01b038086169290841691636352211e916112049160040190815260200190565b602060405180830381865afa158015611221573d6000803e3d6000fd5b505050506040513d601f19601f82011682018060405250810190611245919061268d565b6001600160a01b03161461126b5760405162461bcd60e51b81526004016104ac906126aa565b60405163e985e9c560e01b81526001600160a01b03848116600483015230602483015282169063e985e9c590604401602060405180830381865afa1580156112b7573d6000803e3d6000fd5b505050506040513d601f19601f820116820180604052508101906112db91906127b7565b6113235760405162461bcd60e51b81526020600482015260196024820152782737ba1030b8383937bb32b2103337b9103a3930b739b332b960391b60448201526064016104ac565b6040518060800160405280846001600160a01b03168152602001604051806060016040528061271060055461271061135b91906126e7565b8c5161136791906126fa565b6113719190612711565b81526020016127106005548c6000015161138b91906126fa565b6113959190612711565b81526040808c01516001600160a01b039081166020938401529284528382018b905292830189905260008681526001808352848220865181549086166001600160a01b031991821617825587850151805193830193909355828501516002808401919091559287015160038301805491881691831691909117905587870151805160048085018054928a16929094169190911790925585015160058301556060909701516006909101558b8301805183529252839020869055519151632142170760e11b8152908416926342842e0e9261147492889230929101612793565b600060405180830381600087803b15801561148e57600080fd5b505af11580156114a2573d6000803e3d6000fd5b50505050826001600160a01b0316827f6e4356b3f96be624562e007f212754dd32393fa5e4eebedc68a7a314b2d79379898960405161086e9291906127d9565b6114ea612249565b61271081111561153c5760405162461bcd60e51b815260206004820152601f60248201527f4665652063616e6e6f742062652067726561746572207468616e20313030250060448201526064016104ac565b600555565b600081815260036020818152604092839020835160808101855281546001600160a01b0390811682528551606080820188526001850154825260028501548287015295840154821681880152828501528551808701875260048401548216815260058401549481019490945294810192909252600601549181019190915280513392166116055760405162461bcd60e51b8152602060048201526012602482015271109a5908191bd95cc81b9bdd08195e1a5cdd60721b60448201526064016104ac565b816001600160a01b031681600001516001600160a01b0316146116575760405162461bcd60e51b815260206004820152600a6024820152692737ba103134b23232b960b11b60448201526064016104ac565b600083815260036020818152604080842080546001600160a01b03199081168255600182018690556002820186905593810180548516905560048082018054909516909455600581018590556006018490558481015182015184529190528120905b815481101561176d57848282815481106116d5576116d561281d565b90600052602060002001540361175b57815482906116f5906001906126e7565b815481106117055761170561281d565b90600052602060002001548282815481106117225761172261281d565b90600052602060002001819055508180548061174057611740612833565b6001900381819060005260206000200160009055905561176d565b8061176581612849565b9150506116b9565b506020820151604001516001600160a01b0316156118285760208083015160408101519181015190516001600160a01b0383169163a9059cbb9187916117b291612862565b6040516001600160e01b031960e085901b1681526001600160a01b03909216600483015260248201526044016020604051808303816000875af11580156117fd573d6000803e3d6000fd5b505050506040513d601f19601f8201168201806040525081019061182191906127b7565b5050611851565b6020808301519081015190516118519161184191612862565b6001600160a01b038516906121ad565b60405184907fc1546e394b1975212fe013e7e6995653585f44e568c407d1157483f7d4b9458190600090a250505050565b600754604080516315f789a960e21b8152815160009384936001600160a01b03909116926357de26a492600480830193928290030181865afa1580156118cc573d6000803e3d6000fd5b505050506040513d601f19601f820116820180604052508101906118f09190612875565b909363ffffffff90911692509050565b600081815260016020818152604092839020835160808101855281546001600160a01b0390811682528551606080820188529584015481526002840154818601526003840154821681880152828501528551808701875260048401548216815260058401549481019490945294810192909252600601549181019190915280513392166119c65760405162461bcd60e51b815260206004820152601460248201527313d999995c88191bd95cc81b9bdd08195e1a5cdd60621b60448201526064016104ac565b80516001600160a01b03808416911603611a225760405162461bcd60e51b815260206004820152601b60248201527f53656c6c65722063616e6e6f7420627579206f776e206f66666572000000000060448201526064016104ac565b60608101511580611a365750806060015142105b611a725760405162461bcd60e51b815260206004820152600d60248201526c13d999995c88195e1c1a5c9959609a1b60448201526064016104ac565b604081015151602080830151908101519051600091611a9091612862565b6020840151604001519091506001600160a01b031615611c525760208301516040908101519051636eb1769f60e11b81526001600160a01b03868116600483015230602483015283919083169063dd62ed3e90604401602060405180830381865afa158015611b03573d6000803e3d6000fd5b505050506040513d601f19601f82011682018060405250810190611b279190612733565b1015611b455760405162461bcd60e51b81526004016104ac9061274c565b83516020850151516040516323b872dd60e01b81526001600160a01b038416926323b872dd92611b7b928a929190600401612793565b6020604051808303816000875af1158015611b9a573d6000803e3d6000fd5b505050506040513d601f19601f82011682018060405250810190611bbe91906127b7565b50806001600160a01b03166323b872dd86611be16000546001600160a01b031690565b8760200151602001516040518463ffffffff1660e01b8152600401611c0893929190612793565b6020604051808303816000875af1158015611c27573d6000803e3d6000fd5b505050506040513d601f19601f82011682018060405250810190611c4b91906127b7565b5050611cca565b803414611c8f5760405162461bcd60e51b815260206004820152600b60248201526a57726f6e6720707269636560a81b60448201526064016104ac565b6020830151518351611cac916001600160a01b03909116906121ad565b611cca836020015160200151610ed66000546001600160a01b031690565b600085815260016020818152604080842080546001600160a01b03199081168255938101859055600280820186905560038201805486169055600480830180549096169095556005820186905560069091018590558782018051840151865290835281852094909455925101519151632142170760e11b81526001600160a01b038516926342842e0e92611d649230928a92909101612793565b600060405180830381600087803b158015611d7e57600080fd5b505af1158015611d92573d6000803e3d6000fd5b5050505082600001516001600160a01b0316846001600160a01b0316867f8ffdd7f7cb596550bd624eea142930a26e1bd6c9e6e40c35c4e17d132de8e68e60405160405180910390a45050505050565b6000818152600460209081526040808320805482518185028101850190935280835260609493830182828015611e3757602002820191906000526020600020905b815481526020019060010190808311611e23575b505050505090506000815167ffffffffffffffff811115611e5a57611e5a612346565b604051908082528060200260200182016040528015611e9357816020015b611e806122c6565b815260200190600190039081611e785790505b50905060005b8251811015611f785760036000848381518110611eb857611eb861281d565b6020908102919091018101518252818101929092526040908101600020815160808101835281546001600160a01b0390811682528351606080820186526001850154825260028501548288015260038501548316828701528387019190915284518086018652600485015490921682526005840154958201959095529281019290925260060154918101919091528251839083908110611f5a57611f5a61281d565b60200260200101819052508080611f7090612849565b915050611e99565b509392505050565b600654604080516315f789a960e21b8152815160009384936001600160a01b03909116926357de26a492600480830193928290030181865afa1580156118cc573d6000803e3d6000fd5b600081815260016020526040902060058101548154339291906001600160a01b031661202f5760405162461bcd60e51b815260206004820152601460248201527313d999995c88191bd95cc81b9bdd08195e1a5cdd60621b60448201526064016104ac565b81546001600160a01b038481169116146120785760405162461bcd60e51b815260206004820152600a6024820152692737ba1039b2b63632b960b11b60448201526064016104ac565b600480830154600086815260016020818152604080842080546001600160a01b031990811682559381018590556002808201869055600382018054861690558188018054909516909455600581018590556006018490558684529190528082209190915551632142170760e11b81526001600160a01b039091169182916342842e0e9161210b9130918991889101612793565b600060405180830381600087803b15801561212557600080fd5b505af1158015612139573d6000803e3d6000fd5b50506040518792507fc28b4aed030bfacc245c0501326e1beb8c0ef0d60e4edc21067fdeb52da2a7aa9150600090a25050505050565b612177612249565b6001600160a01b0381166121a157604051631e4fbdf760e01b8152600060048201526024016104ac565b6121aa81612276565b50565b804710156121d05760405163cd78605960e01b81523060048201526024016104ac565b6000826001600160a01b03168260405160006040518083038185875af1925050503d806000811461221d576040519150601f19603f3d011682016040523d82523d6000602084013e612222565b606091505b505090508061224457604051630a12f52160e11b815260040160405180910390fd5b505050565b6000546001600160a01b0316331461107f5760405163118cdaa760e01b81523360048201526024016104ac565b600080546001600160a01b038381166001600160a01b0319831681178455604051919092169283917f8be0079c531659141344cd1fd0a4f28419497f9722a3daafe3b4186f6b6457e09190a35050565b604051806080016040528060006001600160a01b0316815260200161230e6040518060600160405280600081526020016000815260200160006001600160a01b031681525090565b8152602001612339604051806040016040528060006001600160a01b03168152602001600081525090565b8152602001600081525090565b634e487b7160e01b600052604160045260246000fd5b6040805190810167ffffffffffffffff8111828210171561238d57634e487b7160e01b600052604160045260246000fd5b60405290565b6001600160a01b03811681146121aa57600080fd5b600080600083850360c08112156123be57600080fd5b60608112156123cc57600080fd5b6040516060810181811067ffffffffffffffff821117156123fd57634e487b7160e01b600052604160045260246000fd5b80604052508535815260208601356020820152604086013561241e81612393565b604082810191909152909450605f198201121561243a57600080fd5b5061244361235c565b606085013561245181612393565b8152608085013560208201529295929450505060a09091013590565b60008060008060006080868803121561248557600080fd5b853561249081612393565b945060208601356124a081612393565b935060408601359250606086013567ffffffffffffffff808211156124c457600080fd5b818801915088601f8301126124d857600080fd5b8135818111156124e757600080fd5b8960208285010111156124f957600080fd5b9699959850939650602001949392505050565b60006020828403121561251e57600080fd5b5035919050565b80516001600160a01b03168252602080820151906125629084018280518252602080820151908301526040908101516001600160a01b0316910152565b50604081015180516001600160a01b031660808401526020015160a08301526060015160c090910152565b60e0810161259b8284612525565b92915050565b600080604083850312156125b457600080fd5b82356125bf81612393565b915060208301356125cf81612393565b809150509250929050565b6020808252825182820181905260009190848201906040850190845b8181101561261c57612609838551612525565b9284019260e092909201916001016125f6565b50909695505050505050565b60006020828403121561263a57600080fd5b813561087b81612393565b6bffffffffffffffffffffffff19606097881b81168252601482019690965293861b851660348501529190941b9092166048820152605c810192909252607c820152609c0190565b60006020828403121561269f57600080fd5b815161087b81612393565b6020808252600d908201526c2737ba1027232a1037bbb732b960991b604082015260600190565b634e487b7160e01b600052601160045260246000fd5b8181038181111561259b5761259b6126d1565b808202811582820484141761259b5761259b6126d1565b60008261272e57634e487b7160e01b600052601260045260246000fd5b500490565b60006020828403121561274557600080fd5b5051919050565b60208082526027908201527f4e6f7420656e6f75676820746f6b656e7320617070726f76656420666f7220746040820152663930b739b332b960c91b606082015260800190565b6001600160a01b039384168152919092166020820152604081019190915260600190565b6000602082840312156127c957600080fd5b8151801515811461087b57600080fd5b82518152602080840151908201526040808401516001600160a01b03169082015260a0810182516001600160a01b031660608301526020830151608083015261087b565b634e487b7160e01b600052603260045260246000fd5b634e487b7160e01b600052603160045260246000fd5b60006001820161285b5761285b6126d1565b5060010190565b8082018082111561259b5761259b6126d1565b6000806040838503121561288857600080fd5b825180601b0b811461289957600080fd5b602084015190925063ffffffff811681146125cf57600080fdfea2646970667358221220c595e38416866bc0e4359c336939876d87b15d8cf5bc8f7961823d0ab309ae8e64736f6c63430008150033",
    "linkReferences": {}
  },
  "methodIdentifiers": {
    "acceptBid(uint256)": "2b1fd58a",
    "buy(uint256)": "d96a094a",
    "cancelBid(uint256)": "9703ef35",
    "cancelOffer(uint256)": "ef706adf",
    "createOffer((uint256,uint256,address),(address,uint256),uint256)": "85d92aea",
    "ethUsdProxy()": "fe1b5b42",
    "getBid(uint256)": "3c889e6f",
    "getBidsForNFT(uint256)": "ddde2e75",
    "getETHtoUSD()": "e6d16fa2",
    "getNFTOffer(uint256)": "1efd70b9",
    "getOffer(uint256)": "4579268a",
    "getUSDCtoUSD()": "ca70b85d",
    "marketplaceFee()": "6a166964",
    "onERC721Received(address,address,uint256,bytes)": "150b7a02",
    "owner()": "8da5cb5b",
    "placeBid((uint256,uint256,address),(address,uint256),uint256)": "0d961034",
    "renounceOwnership()": "715018a6",
    "setMarketplaceFee(uint256)": "9407ea98",
    "setProxyAddresses(address,address)": "33f334eb",
    "transferOwnership(address)": "f2fde38b",
    "usdcUsdProxy()": "d15c68ef"
  },
  "id": 52
}