{
  "abi": [
    {
      "inputs": [
        {
          "internalType": "address",
          "name": "initialOwner",
          "type": "address"
        }
      ],
      "stateMutability": "nonpayable",
      "type": "constructor"
    },
    {
      "inputs": [],
      "name": "ERC721EnumerableForbiddenBatchMint",
      "type": "error"
    },
    {
      "inputs": [
        {
          "internalType": "address",
          "name": "sender",
          "type": "address"
        },
        {
          "internalType": "uint256",
          "name": "tokenId",
          "type": "uint256"
        },
        {
          "internalType": "address",
          "name": "owner",
          "type": "address"
        }
      ],
      "name": "ERC721IncorrectOwner",
      "type": "error"
    },
    {
      "inputs": [
        {
          "internalType": "address",
          "name": "operator",
          "type": "address"
        },
        {
          "internalType": "uint256",
          "name": "tokenId",
          "type": "uint256"
        }
      ],
      "name": "ERC721InsufficientApproval",
      "type": "error"
    },
    {
      "inputs": [
        {
          "internalType": "address",
          "name": "approver",
          "type": "address"
        }
      ],
      "name": "ERC721InvalidApprover",
      "type": "error"
    },
    {
      "inputs": [
        {
          "internalType": "address",
          "name": "operator",
          "type": "address"
        }
      ],
      "name": "ERC721InvalidOperator",
      "type": "error"
    },
    {
      "inputs": [
        {
          "internalType": "address",
          "name": "owner",
          "type": "address"
        }
      ],
      "name": "ERC721InvalidOwner",
      "type": "error"
    },
    {
      "inputs": [
        {
          "internalType": "address",
          "name": "receiver",
          "type": "address"
        }
      ],
      "name": "ERC721InvalidReceiver",
      "type": "error"
    },
    {
      "inputs": [
        {
          "internalType": "address",
          "name": "sender",
          "type": "address"
        }
      ],
      "name": "ERC721InvalidSender",
      "type": "error"
    },
    {
      "inputs": [
        {
          "internalType": "uint256",
          "name": "tokenId",
          "type": "uint256"
        }
      ],
      "name": "ERC721NonexistentToken",
      "type": "error"
    },
    {
      "inputs": [
        {
          "internalType": "address",
          "name": "owner",
          "type": "address"
        },
        {
          "internalType": "uint256",
          "name": "index",
          "type": "uint256"
        }
      ],
      "name": "ERC721OutOfBoundsIndex",
      "type": "error"
    },
    {
      "inputs": [],
      "name": "EnforcedPause",
      "type": "error"
    },
    {
      "inputs": [],
      "name": "ExpectedPause",
      "type": "error"
    },
    {
      "inputs": [
        {
          "internalType": "address",
          "name": "owner",
          "type": "address"
        }
      ],
      "name": "OwnableInvalidOwner",
      "type": "error"
    },
    {
      "inputs": [
        {
          "internalType": "address",
          "name": "account",
          "type": "address"
        }
      ],
      "name": "OwnableUnauthorizedAccount",
      "type": "error"
    },
    {
      "anonymous": false,
      "inputs": [
        {
          "indexed": true,
          "internalType": "address",
          "name": "owner",
          "type": "address"
        },
        {
          "indexed": true,
          "internalType": "address",
          "name": "approved",
          "type": "address"
        },
        {
          "indexed": true,
          "internalType": "uint256",
          "name": "tokenId",
          "type": "uint256"
        }
      ],
      "name": "Approval",
      "type": "event"
    },
    {
      "anonymous": false,
      "inputs": [
        {
          "indexed": true,
          "internalType": "address",
          "name": "owner",
          "type": "address"
        },
        {
          "indexed": true,
          "internalType": "address",
          "name": "operator",
          "type": "address"
        },
        {
          "indexed": false,
          "internalType": "bool",
          "name": "approved",
          "type": "bool"
        }
      ],
      "name": "ApprovalForAll",
      "type": "event"
    },
    {
      "anonymous": false,
      "inputs": [
        {
          "indexed": true,
          "internalType": "address",
          "name": "previousOwner",
          "type": "address"
        },
        {
          "indexed": true,
          "internalType": "address",
          "name": "newOwner",
          "type": "address"
        }
      ],
      "name": "OwnershipTransferred",
      "type": "event"
    },
    {
      "anonymous": false,
      "inputs": [
        {
          "indexed": false,
          "internalType": "address",
          "name": "account",
          "type": "address"
        }
      ],
      "name": "Paused",
      "type": "event"
    },
    {
      "anonymous": false,
      "inputs": [
        {
          "indexed": true,
          "internalType": "address",
          "name": "from",
          "type": "address"
        },
        {
          "indexed": true,
          "internalType": "address",
          "name": "to",
          "type": "address"
        },
        {
          "indexed": true,
          "internalType": "uint256",
          "name": "tokenId",
          "type": "uint256"
        }
      ],
      "name": "Transfer",
      "type": "event"
    },
    {
      "anonymous": false,
      "inputs": [
        {
          "indexed": false,
          "internalType": "address",
          "name": "account",
          "type": "address"
        }
      ],
      "name": "Unpaused",
      "type": "event"
    },
    {
      "inputs": [
        {
          "internalType": "address",
          "name": "to",
          "type": "address"
        },
        {
          "internalType": "uint256",
          "name": "tokenId",
          "type": "uint256"
        }
      ],
      "name": "approve",
      "outputs": [],
      "stateMutability": "nonpayable",
      "type": "function"
    },
    {
      "inputs": [
        {
          "internalType": "address",
          "name": "owner",
          "type": "address"
        }
      ],
      "name": "balanceOf",
      "outputs": [
        {
          "internalType": "uint256",
          "name": "",
          "type": "uint256"
        }
      ],
      "stateMutability": "view",
      "type": "function"
    },
    {
      "inputs": [
        {
          "internalType": "uint256",
          "name": "tokenId",
          "type": "uint256"
        }
      ],
      "name": "burn",
      "outputs": [],
      "stateMutability": "nonpayable",
      "type": "function"
    },
    {
      "inputs": [
        {
          "internalType": "uint256",
          "name": "tokenId",
          "type": "uint256"
        }
      ],
      "name": "getApproved",
      "outputs": [
        {
          "internalType": "address",
          "name": "",
          "type": "address"
        }
      ],
      "stateMutability": "view",
      "type": "function"
    },
    {
      "inputs": [
        {
          "internalType": "address",
          "name": "owner",
          "type": "address"
        },
        {
          "internalType": "address",
          "name": "operator",
          "type": "address"
        }
      ],
      "name": "isApprovedForAll",
      "outputs": [
        {
          "internalType": "bool",
          "name": "",
          "type": "bool"
        }
      ],
      "stateMutability": "view",
      "type": "function"
    },
    {
      "inputs": [
        {
          "internalType": "address",
          "name": "to",
          "type": "address"
        },
        {
          "internalType": "string",
          "name": "tokenUri",
          "type": "string"
        }
      ],
      "name": "mint",
      "outputs": [],
      "stateMutability": "nonpayable",
      "type": "function"
    },
    {
      "inputs": [],
      "name": "name",
      "outputs": [
        {
          "internalType": "string",
          "name": "",
          "type": "string"
        }
      ],
      "stateMutability": "view",
      "type": "function"
    },
    {
      "inputs": [],
      "name": "owner",
      "outputs": [
        {
          "internalType": "address",
          "name": "",
          "type": "address"
        }
      ],
      "stateMutability": "view",
      "type": "function"
    },
    {
      "inputs": [
        {
          "internalType": "uint256",
          "name": "tokenId",
          "type": "uint256"
        }
      ],
      "name": "ownerOf",
      "outputs": [
        {
          "internalType": "address",
          "name": "",
          "type": "address"
        }
      ],
      "stateMutability": "view",
      "type": "function"
    },
    {
      "inputs": [],
      "name": "pause",
      "outputs": [],
      "stateMutability": "nonpayable",
      "type": "function"
    },
    {
      "inputs": [],
      "name": "paused",
      "outputs": [
        {
          "internalType": "bool",
          "name": "",
          "type": "bool"
        }
      ],
      "stateMutability": "view",
      "type": "function"
    },
    {
      "inputs": [],
      "name": "renounceOwnership",
      "outputs": [],
      "stateMutability": "nonpayable",
      "type": "function"
    },
    {
      "inputs": [
        {
          "internalType": "address",
          "name": "from",
          "type": "address"
        },
        {
          "internalType": "address",
          "name": "to",
          "type": "address"
        },
        {
          "internalType": "uint256",
          "name": "tokenId",
          "type": "uint256"
        }
      ],
      "name": "safeTransferFrom",
      "outputs": [],
      "stateMutability": "nonpayable",
      "type": "function"
    },
    {
      "inputs": [
        {
          "internalType": "address",
          "name": "from",
          "type": "address"
        },
        {
          "internalType": "address",
          "name": "to",
          "type": "address"
        },
        {
          "internalType": "uint256",
          "name": "tokenId",
          "type": "uint256"
        },
        {
          "internalType": "bytes",
          "name": "data",
          "type": "bytes"
        }
      ],
      "name": "safeTransferFrom",
      "outputs": [],
      "stateMutability": "nonpayable",
      "type": "function"
    },
    {
      "inputs": [
        {
          "internalType": "address",
          "name": "operator",
          "type": "address"
        },
        {
          "internalType": "bool",
          "name": "approved",
          "type": "bool"
        }
      ],
      "name": "setApprovalForAll",
      "outputs": [],
      "stateMutability": "nonpayable",
      "type": "function"
    },
    {
      "inputs": [
        {
          "internalType": "uint256",
          "name": "tokenId",
          "type": "uint256"
        },
        {
          "internalType": "string",
          "name": "uri",
          "type": "string"
        }
      ],
      "name": "setTokenUri",
      "outputs": [],
      "stateMutability": "nonpayable",
      "type": "function"
    },
    {
      "inputs": [
        {
          "internalType": "bytes4",
          "name": "interfaceId",
          "type": "bytes4"
        }
      ],
      "name": "supportsInterface",
      "outputs": [
        {
          "internalType": "bool",
          "name": "",
          "type": "bool"
        }
      ],
      "stateMutability": "view",
      "type": "function"
    },
    {
      "inputs": [],
      "name": "symbol",
      "outputs": [
        {
          "internalType": "string",
          "name": "",
          "type": "string"
        }
      ],
      "stateMutability": "view",
      "type": "function"
    },
    {
      "inputs": [
        {
          "internalType": "uint256",
          "name": "index",
          "type": "uint256"
        }
      ],
      "name": "tokenByIndex",
      "outputs": [
        {
          "internalType": "uint256",
          "name": "",
          "type": "uint256"
        }
      ],
      "stateMutability": "view",
      "type": "function"
    },
    {
      "inputs": [
        {
          "internalType": "address",
          "name": "owner",
          "type": "address"
        },
        {
          "internalType": "uint256",
          "name": "index",
          "type": "uint256"
        }
      ],
      "name": "tokenOfOwnerByIndex",
      "outputs": [
        {
          "internalType": "uint256",
          "name": "",
          "type": "uint256"
        }
      ],
      "stateMutability": "view",
      "type": "function"
    },
    {
      "inputs": [
        {
          "internalType": "uint256",
          "name": "tokenId",
          "type": "uint256"
        }
      ],
      "name": "tokenURI",
      "outputs": [
        {
          "internalType": "string",
          "name": "",
          "type": "string"
        }
      ],
      "stateMutability": "view",
      "type": "function"
    },
    {
      "inputs": [],
      "name": "totalSupply",
      "outputs": [
        {
          "internalType": "uint256",
          "name": "",
          "type": "uint256"
        }
      ],
      "stateMutability": "view",
      "type": "function"
    },
    {
      "inputs": [
        {
          "internalType": "address",
          "name": "from",
          "type": "address"
        },
        {
          "internalType": "address",
          "name": "to",
          "type": "address"
        },
        {
          "internalType": "uint256",
          "name": "tokenId",
          "type": "uint256"
        }
      ],
      "name": "transferFrom",
      "outputs": [],
      "stateMutability": "nonpayable",
      "type": "function"
    },
    {
      "inputs": [
        {
          "internalType": "address",
          "name": "newOwner",
          "type": "address"
        }
      ],
      "name": "transferOwnership",
      "outputs": [],
      "stateMutability": "nonpayable",
      "type": "function"
    },
    {
      "inputs": [],
      "name": "unpause",
      "outputs": [],
      "stateMutability": "nonpayable",
      "type": "function"
    }
  ],
  "bytecode": {
    "object": "0x60806040523480156200001157600080fd5b5060405162001a2738038062001a27833981016040819052620000349162000137565b8060405180604001604052806004815260200163053686f760e41b8152506040518060400160405280600381526020016205348560ec1b81525081600090816200007f91906200020e565b5060016200008e82826200020e565b5050600a805460ff19169055506001600160a01b038116620000ca57604051631e4fbdf760e01b81526000600482015260240160405180910390fd5b620000d581620000dd565b5050620002da565b600a80546001600160a01b03838116610100818102610100600160a81b031985161790945560405193909204169182907f8be0079c531659141344cd1fd0a4f28419497f9722a3daafe3b4186f6b6457e090600090a35050565b6000602082840312156200014a57600080fd5b81516001600160a01b03811681146200016257600080fd5b9392505050565b634e487b7160e01b600052604160045260246000fd5b600181811c908216806200019457607f821691505b602082108103620001b557634e487b7160e01b600052602260045260246000fd5b50919050565b601f8211156200020957600081815260208120601f850160051c81016020861015620001e45750805b601f850160051c820191505b818110156200020557828155600101620001f0565b5050505b505050565b81516001600160401b038111156200022a576200022a62000169565b62000242816200023b84546200017f565b84620001bb565b602080601f8311600181146200027a5760008415620002615750858301515b600019600386901b1c1916600185901b17855562000205565b600085815260208120601f198616915b82811015620002ab578886015182559484019460019091019084016200028a565b5085821015620002ca5787850151600019600388901b60f8161c191681555b5050505050600190811b01905550565b61173d80620002ea6000396000f3fe608060405234801561001057600080fd5b50600436106101735760003560e01c80635c975abb116100de57806395d89b4111610097578063c87b56dd11610071578063c87b56dd14610306578063d0def52114610319578063e985e9c51461032c578063f2fde38b1461033f57600080fd5b806395d89b41146102d8578063a22cb465146102e0578063b88d4fde146102f357600080fd5b80635c975abb146102815780636352211e1461028c57806370a082311461029f578063715018a6146102b25780638456cb59146102ba5780638da5cb5b146102c257600080fd5b80632f745c59116101305780632f745c591461021a5780633f4ba83a1461022d57806342842e0e1461023557806342966c68146102485780634f6ccce71461025b57806357f7789e1461026e57600080fd5b806301ffc9a71461017857806306fdde03146101a0578063081812fc146101b5578063095ea7b3146101e057806318160ddd146101f557806323b872dd14610207575b600080fd5b61018b6101863660046111ae565b610352565b60405190151581526020015b60405180910390f35b6101a8610363565b6040516101979190611218565b6101c86101c336600461122b565b6103f5565b6040516001600160a01b039091168152602001610197565b6101f36101ee366004611260565b61041e565b005b6008545b604051908152602001610197565b6101f361021536600461128a565b61042d565b6101f9610228366004611260565b6104bd565b6101f3610522565b6101f361024336600461128a565b610534565b6101f361025636600461122b565b610554565b6101f961026936600461122b565b610560565b6101f361027c366004611372565b6105b9565b600a5460ff1661018b565b6101c861029a36600461122b565b6105d9565b6101f96102ad3660046113b9565b6105e4565b6101f361062c565b6101f361063e565b600a5461010090046001600160a01b03166101c8565b6101a861064e565b6101f36102ee3660046113d4565b61065d565b6101f3610301366004611410565b610668565b6101a861031436600461122b565b61067f565b6101f361032736600461148c565b610721565b61018b61033a3660046114c4565b610763565b6101f361034d3660046113b9565b610791565b600061035d826107cf565b92915050565b606060008054610372906114f7565b80601f016020809104026020016040519081016040528092919081815260200182805461039e906114f7565b80156103eb5780601f106103c0576101008083540402835291602001916103eb565b820191906000526020600020905b8154815290600101906020018083116103ce57829003601f168201915b5050505050905090565b6000610400826107f4565b506000828152600460205260409020546001600160a01b031661035d565b61042982823361082d565b5050565b6001600160a01b03821661045c57604051633250574960e11b8152600060048201526024015b60405180910390fd5b600061046983833361083a565b9050836001600160a01b0316816001600160a01b0316146104b7576040516364283d7b60e01b81526001600160a01b0380861660048301526024820184905282166044820152606401610453565b50505050565b60006104c8836105e4565b82106104f95760405163295f44f760e21b81526001600160a01b038416600482015260248101839052604401610453565b506001600160a01b03919091166000908152600660209081526040808320938352929052205490565b61052a61084f565b610532610882565b565b61054f83838360405180602001604052806000815250610668565b505050565b6104296000823361083a565b600061056b60085490565b82106105945760405163295f44f760e21b81526000600482015260248101839052604401610453565b600882815481106105a7576105a7611531565b90600052602060002001549050919050565b6105c161084f565b6000828152600c6020526040902061054f8282611595565b600061035d826107f4565b60006001600160a01b038216610610576040516322718ad960e21b815260006004820152602401610453565b506001600160a01b031660009081526003602052604090205490565b61063461084f565b61053260006108d4565b61064661084f565b61053261092e565b606060018054610372906114f7565b61042933838361096b565b61067384848461042d565b6104b784848484610a0a565b6000818152600c6020526040902080546060919061069c906114f7565b80601f01602080910402602001604051908101604052809291908181526020018280546106c8906114f7565b80156107155780601f106106ea57610100808354040283529160200191610715565b820191906000526020600020905b8154815290600101906020018083116106f857829003601f168201915b50505050509050919050565b61072961084f565b6000600b6000815461073a9061166b565b9182905550905061074b8382610b33565b6000818152600c602052604090206104b78382611595565b6001600160a01b03918216600090815260056020908152604080832093909416825291909152205460ff1690565b61079961084f565b6001600160a01b0381166107c357604051631e4fbdf760e01b815260006004820152602401610453565b6107cc816108d4565b50565b60006001600160e01b0319821663780e9d6360e01b148061035d575061035d82610b4d565b6000818152600260205260408120546001600160a01b03168061035d57604051637e27328960e01b815260048101849052602401610453565b61054f8383836001610b9d565b6000610847848484610ca3565b949350505050565b600a546001600160a01b036101009091041633146105325760405163118cdaa760e01b8152336004820152602401610453565b61088a610cb8565b600a805460ff191690557f5db9ee0a495bf2e6ff9c91a7834c1ba4fdd244a5e8aa4e537bd38aeae4b073aa335b6040516001600160a01b03909116815260200160405180910390a1565b600a80546001600160a01b03838116610100818102610100600160a81b031985161790945560405193909204169182907f8be0079c531659141344cd1fd0a4f28419497f9722a3daafe3b4186f6b6457e090600090a35050565b610936610cdb565b600a805460ff191660011790557f62e78cea01bee320cd4e420270b5ea74000d11b0c9f74754ebdbfc544b05a2586108b73390565b6001600160a01b03821661099d57604051630b61174360e31b81526001600160a01b0383166004820152602401610453565b6001600160a01b03838116600081815260056020908152604080832094871680845294825291829020805460ff191686151590811790915591519182527f17307eab39ab6107e8899845ad3d59bd9653f200f220920489ca2b5937696c31910160405180910390a3505050565b6001600160a01b0383163b156104b757604051630a85bd0160e11b81526001600160a01b0384169063150b7a0290610a4c903390889087908790600401611684565b6020604051808303816000875af1925050508015610a87575060408051601f3d908101601f19168201909252610a84918101906116c1565b60015b610af0573d808015610ab5576040519150601f19603f3d011682016040523d82523d6000602084013e610aba565b606091505b508051600003610ae857604051633250574960e11b81526001600160a01b0385166004820152602401610453565b805181602001fd5b6001600160e01b03198116630a85bd0160e11b14610b2c57604051633250574960e11b81526001600160a01b0385166004820152602401610453565b5050505050565b610429828260405180602001604052806000815250610cff565b60006001600160e01b031982166380ac58cd60e01b1480610b7e57506001600160e01b03198216635b5e139f60e01b145b8061035d57506301ffc9a760e01b6001600160e01b031983161461035d565b8080610bb157506001600160a01b03821615155b15610c73576000610bc1846107f4565b90506001600160a01b03831615801590610bed5750826001600160a01b0316816001600160a01b031614155b8015610c005750610bfe8184610763565b155b15610c295760405163a9fbf51f60e01b81526001600160a01b0384166004820152602401610453565b8115610c715783856001600160a01b0316826001600160a01b03167f8c5be1e5ebec7d5bd14f71427d1e84f3dd0314c0f7b2291e5b200ac8c7c3b92560405160405180910390a45b505b5050600090815260046020526040902080546001600160a01b0319166001600160a01b0392909216919091179055565b6000610cad610cdb565b610847848484610d16565b600a5460ff1661053257604051638dfc202b60e01b815260040160405180910390fd5b600a5460ff16156105325760405163d93c066560e01b815260040160405180910390fd5b610d098383610de3565b61054f6000848484610a0a565b600080610d24858585610e48565b90506001600160a01b038116610d8157610d7c84600880546000838152600960205260408120829055600182018355919091527ff3f7a9fe364faab93b216da50a3214154f22a0a2b415b23a84c8169e8b636ee30155565b610da4565b846001600160a01b0316816001600160a01b031614610da457610da48185610f41565b6001600160a01b038516610dc057610dbb84610fd2565b610847565b846001600160a01b0316816001600160a01b031614610847576108478585611081565b6001600160a01b038216610e0d57604051633250574960e11b815260006004820152602401610453565b6000610e1b8383600061083a565b90506001600160a01b0381161561054f576040516339e3563760e11b815260006004820152602401610453565b6000828152600260205260408120546001600160a01b0390811690831615610e7557610e758184866110d1565b6001600160a01b03811615610eb357610e92600085600080610b9d565b6001600160a01b038116600090815260036020526040902080546000190190555b6001600160a01b03851615610ee2576001600160a01b0385166000908152600360205260409020805460010190555b60008481526002602052604080822080546001600160a01b0319166001600160a01b0389811691821790925591518793918516917fddf252ad1be2c89b69c2b068fc378daa952ba7f163c4a11628f55a4df523b3ef91a4949350505050565b6000610f4c836105e4565b600083815260076020526040902054909150808214610f9f576001600160a01b03841660009081526006602090815260408083208584528252808320548484528184208190558352600790915290208190555b5060009182526007602090815260408084208490556001600160a01b039094168352600681528383209183525290812055565b600854600090610fe4906001906116de565b6000838152600960205260408120546008805493945090928490811061100c5761100c611531565b90600052602060002001549050806008838154811061102d5761102d611531565b6000918252602080832090910192909255828152600990915260408082208490558582528120556008805480611065576110656116f1565b6001900381819060005260206000200160009055905550505050565b6000600161108e846105e4565b61109891906116de565b6001600160a01b039093166000908152600660209081526040808320868452825280832085905593825260079052919091209190915550565b6110dc838383611135565b61054f576001600160a01b03831661110a57604051637e27328960e01b815260048101829052602401610453565b60405163177e802f60e01b81526001600160a01b038316600482015260248101829052604401610453565b60006001600160a01b038316158015906108475750826001600160a01b0316846001600160a01b0316148061116f575061116f8484610763565b806108475750506000908152600460205260409020546001600160a01b03908116911614919050565b6001600160e01b0319811681146107cc57600080fd5b6000602082840312156111c057600080fd5b81356111cb81611198565b9392505050565b6000815180845260005b818110156111f8576020818501810151868301820152016111dc565b506000602082860101526020601f19601f83011685010191505092915050565b6020815260006111cb60208301846111d2565b60006020828403121561123d57600080fd5b5035919050565b80356001600160a01b038116811461125b57600080fd5b919050565b6000806040838503121561127357600080fd5b61127c83611244565b946020939093013593505050565b60008060006060848603121561129f57600080fd5b6112a884611244565b92506112b660208501611244565b9150604084013590509250925092565b634e487b7160e01b600052604160045260246000fd5b600067ffffffffffffffff808411156112f7576112f76112c6565b604051601f8501601f19908116603f0116810190828211818310171561131f5761131f6112c6565b8160405280935085815286868601111561133857600080fd5b858560208301376000602087830101525050509392505050565b600082601f83011261136357600080fd5b6111cb838335602085016112dc565b6000806040838503121561138557600080fd5b82359150602083013567ffffffffffffffff8111156113a357600080fd5b6113af85828601611352565b9150509250929050565b6000602082840312156113cb57600080fd5b6111cb82611244565b600080604083850312156113e757600080fd5b6113f083611244565b91506020830135801515811461140557600080fd5b809150509250929050565b6000806000806080858703121561142657600080fd5b61142f85611244565b935061143d60208601611244565b925060408501359150606085013567ffffffffffffffff81111561146057600080fd5b8501601f8101871361147157600080fd5b611480878235602084016112dc565b91505092959194509250565b6000806040838503121561149f57600080fd5b6114a883611244565b9150602083013567ffffffffffffffff8111156113a357600080fd5b600080604083850312156114d757600080fd5b6114e083611244565b91506114ee60208401611244565b90509250929050565b600181811c9082168061150b57607f821691505b60208210810361152b57634e487b7160e01b600052602260045260246000fd5b50919050565b634e487b7160e01b600052603260045260246000fd5b601f82111561054f57600081815260208120601f850160051c8101602086101561156e5750805b601f850160051c820191505b8181101561158d5782815560010161157a565b505050505050565b815167ffffffffffffffff8111156115af576115af6112c6565b6115c3816115bd84546114f7565b84611547565b602080601f8311600181146115f857600084156115e05750858301515b600019600386901b1c1916600185901b17855561158d565b600085815260208120601f198616915b8281101561162757888601518255948401946001909101908401611608565b50858210156116455787850151600019600388901b60f8161c191681555b5050505050600190811b01905550565b634e487b7160e01b600052601160045260246000fd5b60006001820161167d5761167d611655565b5060010190565b6001600160a01b03858116825284166020820152604081018390526080606082018190526000906116b7908301846111d2565b9695505050505050565b6000602082840312156116d357600080fd5b81516111cb81611198565b8181038181111561035d5761035d611655565b634e487b7160e01b600052603160045260246000fdfea26469706673582212206ac36aeee4f3a85c78ddc9fbf48b48b7107852fd752bc95139ed8d79bcd1ab9564736f6c63430008140033",
    "linkReferences": {}
  },
  "methodIdentifiers": {
    "approve(address,uint256)": "095ea7b3",
    "balanceOf(address)": "70a08231",
    "burn(uint256)": "42966c68",
    "getApproved(uint256)": "081812fc",
    "isApprovedForAll(address,address)": "e985e9c5",
    "mint(address,string)": "d0def521",
    "name()": "06fdde03",
    "owner()": "8da5cb5b",
    "ownerOf(uint256)": "6352211e",
    "pause()": "8456cb59",
    "paused()": "5c975abb",
    "renounceOwnership()": "715018a6",
    "safeTransferFrom(address,address,uint256)": "42842e0e",
    "safeTransferFrom(address,address,uint256,bytes)": "b88d4fde",
    "setApprovalForAll(address,bool)": "a22cb465",
    "setTokenUri(uint256,string)": "57f7789e",
    "supportsInterface(bytes4)": "01ffc9a7",
    "symbol()": "95d89b41",
    "tokenByIndex(uint256)": "4f6ccce7",
    "tokenOfOwnerByIndex(address,uint256)": "2f745c59",
    "tokenURI(uint256)": "c87b56dd",
    "totalSupply()": "18160ddd",
    "transferFrom(address,address,uint256)": "23b872dd",
    "transferOwnership(address)": "f2fde38b",
    "unpause()": "3f4ba83a"
  },
  "id": 53
}